S012000070726F6772616D2031632E7372656366
S11300000C942A000C943F000C943F000C943F0085
S11300100C943F000C943F000C943F000C943F0060
S11300200C943F000C943F000C943F000C943F0050
S11300300C943F000C943F000C943F000C943F0040
S11300400C943F000C943F000C943F000C943F0030
S11300500C943F0011241FBECFE5D8E0DEBFCDBF16
S113006010E0A0E6B0E0EAECF0E002C005900D92EA
S1130070A237B107D9F70E9441000C9463000C9495
S11300800000CF93DF93CDB7DEB762970FB6F89435
S1130090DEBF0FBECDBF82E1E0E6F0E0DE011196E7
S11300A001900D928A95E1F78FEF84BB11BA80B36A
S11300B08F70E1E0F0E0EC0FFD1FE80FF11D80818F
S10D00C0809585BBF4CFF894FFCFC0
S11300CA3F065B4F666D7D077FFF87FDEDE6CFDB5D
S10500DA867129
S9030000FC
