S0130000636865636B706F696E74322E73726563B7
S11300000C9439000C9443000C9443000C9443006A
S11300100C9443000C9443000C9443000C94430050
S11300200C9443000C9443000C9443000C94430040
S11300300C9443000C9443000C9443000C94430030
S11300400C9443000C9443000C9443000C94430020
S11300500C9443008C00AA008E009000920094003F
S1130060960098009A009C009E00A000A200A400A4
S1130070A60011241FBECFE5D8E0DEBFCDBF0E948D
S113008045000C94B3000C94000011BA8FEF84BBAC
S1130090C0E0612C712C61E070E00F2EF1E78F2E2F
S11300A0F02DD6E00F2EF9E79F2EF02D0F2EFCE752
S11300B0AF2EF02D0F2EF7E7BF2EF02D0F2EFFE6FB
S11300C0CF2EF02D0F2EFFE7DF2EF02D0F2EF7E0B1
S11300D0EF2EF02D0F2EFDE7FF2EF02D0DE616E688
S11300E090B32C2F362D872DAB01022E02C0440F66
S11300F0551F0A94E2F7492309F08F5F2F5F3F4FA2
S11301002830310589F790E08F30910508F5865D38
S11301109F4FFC010C94AD008FE31DC08BE51BC009
S11301208FE419C0812F17C0802F15C08F2D13C0E5
S11301308E2D11C08D2D0FC08C2D0DC08B2D0BC09D
S11301408A2D09C089E307C08EE505C0892D03C047
S1130150882D01C08D2F85BBC3CFEE0FFF1F0590E7
S10D0160F491E02D0994F894FFCF08
S9030000FC
